:020000040800F2
:10000000005000202D0C0008750C0008750C00082D
:10001000750C0008750C0008750C00080000000045
:10002000000000000000000000000000750C000847
:10003000750C000800000000750C0008750C000825
:10004000750C0008750C0008750C0008750C00088C
:10005000750C0008750C0008750C0008750C00087C
:10006000750C0008750C0008750C0008750C00086C
:10007000750C000899060008750C0008750C00083E
:10008000750C0008750C0008750C0008750C00084C
:10009000750C0008750C0008750C0008750C00083C
:1000A000750C0008750C0008750C0008750C00082C
:1000B00091050008750C0008750C0008750C000807
:1000C000750C0008750C0008750C0008750C00080C
:1000D000750C0008950A0008750C0008750C0008DE
:1000E000750C0008750C0008750C00080000000075
:1000F0000000000000000000000000000000000000
:0C01000000000000000000005FF808F1A3
:10010C0010B5054C227832B9044B13B10448AFF347
:10011C0000800123237010BD40000020000000006F
:10012C00C00C000808B5034B1BB103490348AFF3DF
:10013C00008008BD0000000044000020C00C000836
:10014C0080B400AF154B1B68144A43F001031360D5
:10015C00124B5A681149124B13404B600F4B1B68E2
:10016C000E4A23F0847323F4803313600B4B1B680B
:10017C000A4A23F480231360084B5B68074A23F474
:10018C00FE035360054B4FF41F029A60054B4FF072
:10019C0000629A6000BFBD4680BC704700100240F0
:1001AC000000FFF800ED00E080B485B000AFF8600F
:1001BC00B9601346FB71BB68072B16DCBB689B0050
:1001CC00BB60FB681B680F21BA6801FA02F2D243CC
:1001DC001A40FB681A60FB681B68F979BA6801FA67
:1001EC0002F21A43FB681A6018E0BB68083BBB605C
:1001FC00BB689B00BB60FB685B680F21BA6801FAA7
:10020C0002F2D2431A40FB685A60FB685B68F979CA
:10021C00BA6801FA02F21A43FB685A6000BF14373D
:10022C00BD4680BC7047000080B483B000AF03466D
:10023C00FB71054B9A69FB79034913438B6100BF32
:10024C000C37BD4680BC70470010024080B400AF34
:10025C00264B1B68254A43F48033136000BF234BA5
:10026C001B6803F40033002BF9D0204B5B681F4A4A
:10027C0043F4806353601D4B1C4A5B6853601B4BFB
:10028C001A4A5B6853601A4B1B68194A43F0040303
:10029C001360164B5B68154A43F4E0135360134B21
:1002AC005B68124A43F480335360104B1B680F4A4F
:1002BC0043F08073136000BF0C4B1B6803F000739A
:1002CC00002BF9D0094B5B68084A43F002035360DA
:1002DC0000BF064B5B6803F00803002BF9D0054BFD
:1002EC00054A1A6000BFBD4680BC70470010024032
:1002FC00002002400000002000A24A0480B500AF9C
:10030C00FFF7A4FF1420FFF78FFF02220D210748EF
:10031C00FFF74AFF00F0F8F900F0D8F900F066FB9F
:10032C0000F0DEFB0023184680BD00BF001001402A
:10033C0080B483B000AF0346FB71FB7903F01F025E
:10034C00064997F907305B09012000FA02F241F8DF
:10035C00232000BF0C37BD4680BC704700E100E095
:10036C0080B483B000AF0346FB71054B9A69FB79EF
:10037C00034913438B6100BF0C37BD4680BC7047EB
:10038C000010024080B500AF0420FFF7E9FF0B22FC
:10039C0003210548FFF708FF0B2207210248FFF74E
:1003AC0003FF00BF80BD00BF0008014080B500AF57
:1003BC00114B5B69104A43F0010353610D20FFF7A9
:1003CC00B7FF0E4B0E4A9A600C4B0E4ADA600B4B81
:1003DC0029225A60094B00221A60084B1B68074AF5
:1003EC0043F092031360054B1B68044A43F44053DB
:1003FC00136000BF80BD00BF0010024030000240FF
:10040C000C3001407C00002080B400AF0F4B1A6808
:10041C0013469B001344DB00134408330C4A1A4464
:10042C000C4BDA60094B1B680133084A1360074B0D
:10043C001B68E42B02D1054B00221A60054B2922C4
:10044C005A6000BFBD4680BC704700BF60000020F2
:10045C00740000203000024080B400AF134B9B6945
:10046C00124A43F480539361114B1B68104A43F0BA
:10047C00100313600E4B1B680D4A43F4407313605A
:10048C000B4B1B680A4A43F004031360084B5B6870
:10049C00074A43F002035360054B1B68044A43F0C0
:1004AC004003136000BFBD4680BC70470010024083
:1004BC000030014080B500AF1C20FFF739FF2E4BF8
:1004CC00DB692D4A43F00103D3612B4BDB692A4ACC
:1004DC0043F00103D3614FF0804300229A62274B13
:1004EC005A68274913465B0013445B000B440433E2
:1004FC001A884FF08043DA624FF0804300225A6230
:10050C004FF08043DB694FF0804243F4E043D3610A
:10051C004FF08043DB694FF0804243F40063D361BA
:10052C00164B5A68164913465B0013445B000B4488
:10053C0002331A884FF080431A644FF080434FF611
:10054C00FF72DA634FF080431B6A4FF0804243F432
:10055C00885313624FF08043DB684FF0804243F0C6
:10056C001803D3604FF080431B684FF0804243F078
:10057C008003136000BF80BD001002407400002097
:10058C000400002080B400AF4FF080431B6903F0DF
:10059C001003002B5CD04FF080431B694FF080425E
:1005AC0023F010031361354B1B680133334A13607E
:1005BC00324B1968314B5A68314813465B0013446F
:1005CC005B0003441B88994228D12C4B5B68013398
:1005DC002A4A5360294B00221A60284B5B68092B6E
:1005EC0002DD264B00225A60244B5A6824491346DC
:1005FC005B0013445B000B4404331A884FF08043B8
:10060C00DA621E4B5A681E4913465B0013445B00AA
:10061C000B4402331A884FF080431A64174B1B6843
:10062C001E2B07D14FF0804340F26342DA63154B27
:10063C0001221A70114B1B68B3F5817F1AD14FF050
:10064C0080434FF6FF72DA630E4B00221A7011E0F2
:10065C004FF080431B694FF0804223F00803136175
:10066C00084B1B78002B05D0074B1B68064A43F040
:10067C000103136000BFBD4680BC704774000020AE
:10068C00040000205C0000203000024080B500AF68
:10069C0000BF0B4B9B6803F08003002BF9D1094B77
:1006AC001B68084A23F001031360074B5B68064A7A
:1006BC0043F400735360FFF7A7FE00BF80BD00BF7B
:1006CC0000300140300002400000024080B500AF15
:1006DC000C4B00221A600B4B00225A60FFF752FEA3
:1006EC00FFF764FEFFF790FEFFF7B6FEFFF7E2FEA2
:1006FC004FF080431B684FF0804243F001031360BE
:10070C0000BF80BD7400002080B483B000AF002314
:10071C007B6018E000233B600FE00F497A681346BA
:10072C009B001344DB001344CA183B681344083382
:10073C0000221A703B6801333B603B68282BECDDD0
:10074C007B6801337B607B68E32BE3DD00BF00BF7C
:10075C000C37BD4680BC70477400002080B483B059
:10076C0000AF786039603A687B689342B8BF134633
:10077C0018460C37BD4680BC704780B483B000AFC0
:10078C00786039603A687B689342A8BF1346184674
:10079C000C37BD4680BC704790B482B000AF194B8B
:1007AC001B68DB000C333B603B687B601FE0164B27
:1007BC00196816487A6813469B001344DB001344EF
:1007CC0003440B4408331B780F4A1168DB43DCB23B
:1007DC000E487A6813469B001344DB001344034411
:1007EC000B44083322461A707B6801337B603B68EC
:1007FC0007337A689A42DADD00BF00BF0837BD467E
:10080C0090BC704768000020640000207400002039
:10081C0080B500AF064B1B68192B06DC044B1B681C
:10082C0001331946002000F027F800BF80BD00BF3F
:10083C006800002080B500AF064B1B7883F00103E5
:10084C00DBB2002B04D0034B01221A70FFF7A4FF7C
:10085C0000BF80BD6C00002080B500AF054B1B783D
:10086C00002B04D0034B00221A70FFF795FF00BF3A
:10087C0080BD00BF6C00002080B582B000AF7860F6
:10088C003960144B1B78002B01D0FFF785FF272113
:10089C007868FFF772FF034619460020FFF75EFFEA
:1008AC0003460D4A13601A213868FFF766FF0346AA
:1008BC0019460020FFF752FF0346084A1360054B08
:1008CC001B78002B01D0FFF767FF00BF0837BD4630
:1008DC0080BD00BF6C000020640000206800002078
:1008EC0090B585B000AF0346FB71FB790A2B02D1A2
:1008FC00FFF78EFF42E0234B1B68DB000C33BB6021
:10090C000023FB601BE0FB79DB001F4A1344FA68F1
:10091C00C2F107021344F968BA680A441B49096812
:10092C001C781B4813469B001344DB001344034400
:10093C000B44083322461A70FB680133FB60FB68DA
:10094C00072BE0DD114B1B680133104A13600F4B72
:10095C001B68272B0CDD0D4B00221A60094B1B6802
:10096C0001331A211846FFF708FF0346054A1360A6
:10097C00084B1B78002B01D0FFF70EFF1437BD4638
:10098C0090BD00BF68000020D80C00086400002057
:10099C00740000206C00002080B483B000AF0346CC
:1009AC00FB71FB7903F01F02064997F907305B09CD
:1009BC00012000FA02F241F8232000BF0C37BD469B
:1009CC0080BC704700E100E080B483B000AF034608
:1009DC00FB71054B9A69FB79034913438B6100BF8B
:1009EC000C37BD4680BC70470010024080B500AF8C
:1009FC002520FFF7D1FF0420FFF7E6FF0B2209218A
:100A0C001148FFF7D1FB04220A210F48FFF7CCFB5A
:100A1C000E4B9B690D4A43F4804393610C4B1B684E
:100A2C0003F59C5308330B4AA2FB03235B0B9AB2CE
:100A3C00094B9A60084BDB68074A43F4005343F0B8
:100A4C002C03D36000BF80BD0008014000100240A1
:100A5C00000000205917B7D10038014080B483B092
:100A6C0000AF0346FB7100BF064B1B6803F080030D
:100A7C00002BF9D0034AFB79536000BF0C37BD46FD
:100A8C0080BC70470038014080B582B000AF114B7C
:100A9C001B6803F02003002B17D00F4B1B78DBB225
:100AAC0083F00103DBB2002B08D00A4B5B68DAB28F
:100ABC000A4B1A70084B01221A7006E0054B5B6852
:100ACC00DBB2FB71FF20FFF7C9FF00BF0837BD4643
:100ADC0080BD00BF003801406E0000206D0000207A
:100AEC0080B500AF00E030BF484B1B78DBB283F021
:100AFC000103DBB2002BF6D1454B1B78002B1AD02F
:100B0C00444B1B78DBB2272B0BD8424B1B78DAB249
:100B1C00414B1A70414B01221A700020FFF79EFFC7
:100B2C0002E0FF20FFF79AFF3A4B00221A70374B76
:100B3C0000221A7068E0394B1B78002B1CD0354B07
:100B4C001B78DBB21A2B0DD8334B1B781A46314B62
:100B5C001B78DBB219461046FFF78EFE0020FFF71C
:100B6C007DFF02E0FF20FFF779FF2C4B00221A706B
:100B7C00264B00221A7047E0264B1B78DBB2C83B91
:100B8C00042B2AD801A252F823F000BFAD0B0008A9
:100B9C00B90B0008C50B0008D90B0008D10B0008D5
:100BAC00FFF7B2FD0020FFF759FF2AE0FFF742FEE6
:100BBC000020FFF753FF24E0FFF74EFE0020FFF765
:100BCC004DFF1EE00020FFF749FF1AE0104B0122F9
:100BDC001A700020FFF742FF13E00E4B1B78DBB2BC
:100BEC005BB2002B09DB0B4B1B78DBB21846FFF713
:100BFC0077FE0020FFF732FF02E0FF20FFF72EFF09
:100C0C0000BF024B00221A706EE700BF6E0000207E
:100C1C006F0000206D00002070000020710000208B
:100C2C00002103E00B4B5B58435004310A480B4B3B
:100C3C0042189A42F6D30A4A02E0002342F8043BD7
:100C4C00084B9A42F9D3FFF77BFA00F00FF8FFF745
:100C5C0055FB7047E0100008000000204000002009
:100C6C004000002000250020FEE7000070B50026A3
:100C7C000C4D0D4C641BA410A64209D100F01AF8BF
:100C8C0000260A4D0A4C641BA410A64205D170BD67
:100C9C0055F8043B98470136EEE755F8043B984766
:100CAC000136F2E7D8100008D8100008D810000858
:100CBC00DC100008F8B500BFF8BC08BC9E467047B5
:0C0CCC00F8B500BFF8BC08BC9E4670479D
:100CD80000007E7E7E7E7E7E00007E7E7E7E7E7E24
:100CE80000007E7E7E7E7E7E00007E7E7E7E7E7E14
:100CF80000007E7E7E7E7E7E00007E7E7E7E7E7E04
:100D080000007E7E7E7E7E7E00007E7E7E7E7E7EF3
:100D180000007E7E7E7E7E7E0000000000000000D7
:100D280000007E7E7E7E7E7E00007E7E7E7E7E7ED3
:100D380000007E7E7E7E7E7E00007E7E7E7E7E7EC3
:100D480000007E7E7E7E7E7E00007E7E7E7E7E7EB3
:100D580000007E7E7E7E7E7E00007E7E7E7E7E7EA3
:100D680000007E7E7E7E7E7E00007E7E7E7E7E7E93
:100D780000007E7E7E7E7E7E00007E7E7E7E7E7E83
:100D880000007E7E7E7E7E7E00007E7E7E7E7E7E73
:100D980000007E7E7E7E7E7E00007E7E7E7E7E7E63
:100DA80000007E7E7E7E7E7E00007E7E7E7E7E7E53
:100DB80000007E7E7E7E7E7E00007E7E7E7E7E7E43
:100DC80000007E7E7E7E7E7E00007E7E7E7E7E7E33
:100DD80000000000000000000000080008080808E3
:100DE80000000000000028280000287C287C28003B
:100DF80000083C0A1C281E08000006291668946092
:100E0800000019261920201C000000000000080816
:100E18000000081020201008000010080404081022
:100E28000000002A1C3E1C2A000008083E08080092
:100E38000010080000000000000000003C00000056
:100E48000000080000000000000040201008040214
:100E5800000018244242241800001C08080818083A
:100E680000007E201804423C00003C421804423C2A
:100E78000000087C4828180800003C42027C407E9C
:100E880000003C42427C403C000040201008047EA8
:100E980000003C42423C423C00003C023E42423C94
:100EA800000008000008000000100800000800000A
:100EB80000000618601806000000007E007E000092
:100EC800000060180618600000001000180444387C
:100ED8001C205C949C443C00000042423C241818AE
:100EE80000007844447844780000384480804438CE
:100EF800000078444444447800007C404078407CBA
:100F0800000040404078407C000038449C804438D1
:100F180000004242427E424200003E080808083E65
:100F2800000038440404041C00004448705048443D
:100F380000007E4040404040000041414955634127
:100F4800000042464A52624200001C222222221C11
:100F5800000040404078447800021C222222221CD3
:100F6800000044485078447800001C220C10221CD1
:100F7800000008080808087F00003C42424242423C
:100F88000000182424424281000041635549414130
:100F980000004224181824420000080808142241BE
:100FA80000007E201008047E000038202020203811
:100FB800000002040810204000003808080808381B
:100FC800000000000000281000007E000000000063
:100FD800000000000000081000003A463E023C00F5
:100FE80000005C62427C404000001C20201C000085
:100FF80000003A46423E020200003C407E423C006D
:101008000000101038101800380434444C34000024
:1010180000002424243820200000080808080008BC
:10102800700808080818000800002C302824202020
:101038000000181010101010000042425A660000FC
:1010480000002222322E000000003C42423C0000F8
:1010580040407C42625C000002023E42463A000088
:1010680000002020322C00000000380418201C004A
:1010780000001810103C100000001A262222000060
:1010880000001824424200000000665A81810000D6
:101098000000661824420000601008142242000074
:1010A80000003C10083C000000001C103030101CF0
:1010B8000008080808080808000038080C0C083858
:1010C8000000004C3200000000007E7E7E7E7E7EA6
:0410D80031010008DA
:0410DC000D010008FA
:1010E00000A24A040500AD07FF080500A900FF089B
:1010F00031015201FF110500A900FF080500AD07ED
:10110000FF080400A900FF080100A900FF11300139
:101110005201FF1101005201FF080500A900FF085C
:0400000508000C2DB6
:00000001FF
